:0400000080313528EE
:100008007E14803120007F08F1008B1A0B1D3128E7
:100018008B130B110130C4070030C53D0130450278
:10002800F43003194402031C2328C401C50101301C
:10003800C2070030C33D0130F0007008C70000302F
:1000480043023C3003194202031C30280130F000FF
:100058007008C700C201C3018B177108FF007E102A
:10006800090080313728FB013D30840000308500CD
:100078000E308731F92780314D3084008E3085006D
:100088004B3086000030870005308E31582680318D
:10009800C03084008F308500A03086000030870093
:1000A80040308E3158267E10200080315B288E31FA
:1000B800A826803100308531AC258031F40101302B
:1000C8008631572680312000A00100308F319C27CF
:1000D800803111302000A0008730A100873192279D
:1000E80080312000A001A00A00308F319C27803188
:1000F80000302000A0008730A1008731922780318E
:100108008E319326803152302000BA002C30B9004D
:100118004F30B800B80B8E28B90B8E28BA0B8E2832
:1001280000328E31812680318E31FC2680312000CC
:10013800B8003808C8008F311B2780312000B8006C
:100148003808C9008731D32780312000B800380823
:10015800CA008E31672680312000B8003808CD00EB
:100168008E31DD2680312000B8003808CC008F3170
:100178003A2780312000B8003808CE008F3159273F
:1001880080312000B8003808CF00AE01AF01AF0AB7
:100198004808B8003808B0004908B9003908B10063
:1001A80005308631A82680312000AE01AE0AAF01A5
:1001B8004D08B8003808B0004C08B9003908B1003B
:1001C8004E08BA003A08B2004F08BB003B08B3001B
:1001D80001308431602480318B178B160B17200077
:1001E8000C1AC4298B130130B8003808C607AE01B1
:1001F800AF01AF0A4808B8003808B0004908B9008C
:100208003908B10005308631A82680312000AE01BA
:10021800AE0AAF014D08B8003808B0004C08B90064
:100228003908B1004E08BA003A08B2004F08BB00BE
:100238003B08B30001308431602480319E292000BE
:10024800A00104308F319C27803149302000A00064
:100258008730A100873192278031B6292000A0017C
:100268000A308F319C27803147302000A00087302A
:10027800A100873192278031B6292000A001A00A69
:1002880000308F319C27803149302000A000873012
:10029800A100873192278031B6292000A001A00A49
:1002A80004308F319C27803149302000A0008730EE
:1002B800A100873192278031B6292000A001A00A29
:1002C80007308F319C27803149302000A0008730CB
:1002D800A100873192278031B6292000A001A00A09
:1002E8000E308F319C27803147302000A0008730A6
:1002F800A100873192278031B6292000C60149081C
:10030800B8003808A000A1014D08B9003908A200BA
:100318004C08BA003A08A3004E08BB003B08A400EA
:100328004F08BC003C08A5004808833135238031BC
:100338008B17B62920004608013A03192329033AE6
:1003480003193229013A03194129073A0319512996
:10035800013A03196129033A03197129013A03196A
:100368008129B62915302000BA004B30B900D130A8
:10037800B800B80BBD29B90BBD29BA0BBD290000BF
:1003880020008C1E162AD32A17304802031CCE29B7
:10039800C8012A2A0130B8003808C8072A2A3B3081
:1003A8004902031CD929C9012A2A0130B800380892
:1003B800C9072A2A07304D02031CE7290130B80073
:1003C8003808CD002A2A0130B8003808CD072A2A73
:1003D8001F304C02031CF5290130B8003808CC0046
:1003E8002A2A0130B8003808CC072A2A0C304E02D5
:1003F800031C032A0130B8003808CE002A2A01302D
:10040800B8003808CE072A2A14304F02031C112AD4
:100418000F30B8003808CF002A2A0130B800380851
:10042800CF072A2A4608013A0319C829033A0319AB
:10043800D329013A0319DE29073A0319EC29013AAD
:100448000319FA29033A0319082A2A2AAE01AF0127
:10045800AF0A4808B8003808B0004908B900390898
:10046800B10005308631A82680312000AE01AE0AE1
:10047800AF014D08B8003808B0004C08B900390879
:10048800B1004E08BA003A08B2004F08BB003B085A
:10049800B3000130843160248031B02A2000A001EB
:1004A80004308F319C27803149302000A0008730EC
:1004B800A100873192278031C52A2000A0010A3087
:1004C8008F319C27803147302000A0008730A10061
:1004D800873192278031C52A2000A001A00A003068
:1004E8008F319C27803149302000A0008730A1003F
:1004F800873192278031C52A2000A001A00A043044
:100508008F319C27803149302000A0008730A1001E
:10051800873192278031C52A2000A001A00A073020
:100528008F319C27803149302000A0008730A100FE
:10053800873192278031C52A2000A001A00A0E30F9
:100548008F319C27803147302000A0008730A100E0
:10055800873192278031C52A20004608013A0319BD
:10056800522A033A0319612A013A0319702A073AF1
:100578000319802A013A0319902A033A0319A02A79
:10058800C52A0B302000BA002630B9006630B80002
:10059800B80BCC2AB90BCC2ABA0BCC2A00322000D3
:1005A8004708013A031DF328C608031DF3288E31B6
:1005B800FC2680312000B8003808C8008F311B277E
:1005C80080312000B8003808C9008731D32780312E
:1005D8002000B8003808CA008E3167268031200014
:1005E800B8003808CD008E31DD2680312000B800F3
:1005F8003808CC008F313A2780312000B8003808FD
:10060800CE008F31592780312000B8003808CF003C
:10061800AE01AF014808B8003808B0004908B90071
:100628003908B10005308631A82680312000AE0196
:10063800AE0AAF014D08B8003808B0004C08B90040
:100648003908B1004E08BA003A08B2004F08BB009A
:100658003B08B30001308431602480312000C70199
:10066800F3282000B600A1010A30F2000030F300A0
:100678002008A600A7012608F4002708F5008731FE
:100688004B27833172082000A8007308A9000A309C
:10069800F2000030F3002008AA00AB012A08F40099
:1006A8002B08F50086310426833172082000AC003F
:1006B8000330AC35FF3E031D5D2B2C352804AD00FF
:1006C8002D08A0000A30F2000030F3003608A6001A
:1006D800A7012608F4002708F50087314B27833146
:1006E80072082000A8007308A9000A30F200003040
:1006F800F3003608AA00AB012A08F4002B08F5001D
:1007080086310426833172082000AC000330AC35F2
:10071800FF3E031D8B2B2C352804AD002D08B60099
:100728000A30F2000030F3002308A600A7012608CB
:10073800F4002708F50087314B2783317208200021
:10074800A8007308A9000A30F2000030F30023085B
:10075800AA00AB012A08F4002B08F500863104260C
:10076800833172082000AC000330AC35FF3E031D16
:10077800B92B2C352804AD002D08A3000A30F2004F
:100788000030F3002408A600A7012608F400270873
:10079800F50087314B27833172082000A8007308C1
:1007A800A9000A30F2000030F3002408AA00AB01C7
:1007B8002A08F4002B08F5008631042683317208D4
:1007C8002000AC000330AC35FF3E031DE72B2C3571
:1007D8002804AD002D08A4000A30F2000030F30010
:1007E8002508A600A7012608F4002708F500873188
:1007F8004B27833172082000A8007308A9000A302B
:10080800F2000030F3002508AA00AB012A08F40022
:100818002B08F50086310426833172082000AC00CD
:100828000330AC35FF3E031D152C2C352804AD00D4
:100838002D08A5002108A6002608AE002008A6005D
:100848002608AF003608A6002608B0002208A60031
:100858002608B1002308A6002608B2002408A6002E
:100868002608B3002508A6002608B400B5018E3175
:1008780043268331D0308E315E26833100308E316D
:100888005E2683312000B7010830370203185D2C3B
:1008980037082E3E8600870101088E315E26833197
:1008A80001302000A6002608B70708303702031CCD
:1008B8004C2C8E31482608002000B7002F08031959
:1008C8006B2CF4010130863157268431200020003A
:1008D8002E08B4003408A00037088F319C278431D3
:1008E800B42C2F302000A0008730A1008731922738
:1008F8008431CC2C25302000A0008730A10087311E
:1009080092278431CC2C20302000A0008730A10011
:10091800873192278431CC2C3E302000A0008730CC
:10092800A100873192278431CC2C2A302000A000E6
:100938008730A100873192278431CC2C39302000B0
:10094800A0008730A100873192278431CC2C343025
:100958002000A0008730A100873192278431CC2C59
:1009680020004D08013A0319752C033A03197E2C0F
:10097800013A0319872C073A0319902C013A0319F5
:10098800992C033A0319A22C013A0319AB2CCC2C4D
:1009980020004C08B400B5013408A0003508A100B7
:1009A8000230B6003608A200853111258431433063
:1009B8002000A0008730A1008731922784312000D1
:1009C8004E08B400B5013408A0003508A100023073
:1009D800B6003608A2008531112584314330200045
:1009E800A0008730A10087319227843120004F086A
:1009F800B400B5013408A0003508A1000230B600E3
:100A08003608A20085311125843143302000A0002A
:100A18008730A1008731922708003D3086000030DA
:100A28008700253084000030850005302000A300B1
:100A380016001A00A30B1C2D0430AC000030AD00CA
:100A4800AA01AB01A11F342DF401F40A2D3086311F
:100A5800572685312000A009A109A00A0319A10A77
:100A6800210820040319672D0A30F2000030F30032
:100A78002108F501F5072008F401F40787314B2711
:100A8800853172082000A3002C08253E86008701C6
:100A9800230881000A30F2000030F3002108F50134
:100AA800F5072008F401F407863104268531730818
:100AB8002000A101A1077208A001A007FF30AC0720
:100AC800FF30AD3D342D2208FF3A0319702D792DE2
:100AD8000130AA070030AB3D2A08253E8600870171
:100AE8000108003A031D892D6C2D2208A300A401DA
:100AF800A31BA403A309A409A30A0319A40A23088E
:100B0800053EAA000030243DAB002B08AD01AD071F
:100B18002A08AC01AC072D08803AA30080302302D4
:100B2800031D982D05302C0203180800F401F40A5F
:100B380020002C08253E860087010108303E8631BA
:100B48005726853101302000AC070030AD3D8F2D90
:100B58002000A3000230A2003830A100AD30A00070
:100B6800A00BB42DA10BB42DA20BB42DC3302000C3
:100B7800A000200821008E050C110C108C10C33029
:100B88002000A00020088E050C118C100C100032DB
:100B9800003220000C158E1500320032003200326F
:100BA80020000C1100320032003200328631F42667
:100BB8008531F4012830863157268531F40120002B
:100BC80023080C38863157268531F40140308631A8
:100BD800572685312000A40140302402031808005C
:100BE800F401F40A2408A03E860087010108863132
:100BF8005726853101302000A0002008A407F02DD9
:100C0800F801F31F0E2EF209F309F20A0319F30A89
:100C1800F801F80AF51F192EF409F509F40A031961
:100C2800F50A0130F6007608F806F901FA017308AA
:100C380072040319482EF701F70AF31B2D2E013011
:100C4800F235F30D890B242E0130F6007608F707EC
:100C5800212E0130F935FA0D890B2E2E73087502F5
:100C6800031D382E72087402031C3F2E7208F4020A
:100C78007308F53B79140130F336F20C890B402EDA
:100C88000130F702031D2D2E78080319502EF9099B
:100C9800FA09F90A0319FA0A7A08F301F307790835
:100CA800F201F2070800F9007908F5000430F5367A
:100CB800890B5B2E7508F6007608F70079080F395E
:100CC800F5007508F800F408031D6D2E20000C10BF
:100CD8006F2E20000C140032003220000C1577080B
:100CE800F5000230F535890B762E0E08C3397504E8
:100CF800F6007608FA007A088E00003200320032D8
:100D0800003220000C110032003200320032200084
:100D18000C157808F5000230F535890B902E0E0871
:100D2800C3397504F6007608FA007A088E00003296
:100D380000320032003220000C1100320032003242
:100D480000328631F42608002000B5002F08031968
:100D5800B32EF40101308631572686312000200059
:100D68002E08B2003208A00035088F319C27863142
:100D780020003008B200B3013208A0003308A100F7
:100D88000230B4003408A2008531112586312000D4
:100D98004B08013A031DDA2E4530A0008730A10028
:100DA8008731922786312000CB01E62E2330A00020
:100DB8008730A10087319227863101302000B200A8
:100DC8003208CB003108B200B3013208A000330862
:100DD800A1000230B4003408A200853111250800B2
:100DE8003430F300F130F200F20BF82EF30BF82E4A
:040DF80000320800BD
:100E0000693420346D3461346C34753420344C349E
:100E10006134723469346334753420343A3429349B
:100E20000034533461346C346534203476346F3498
:100E30006C34693420345A3461346E34753400347F
:100E40005734653464342034003454347534653494
:100E500020340034463472346934203400344D3444
:100E60006F346E3420340034533475346E3420348F
:100E700000345334613474342034003454346834CE
:100E80007534203400342E3400343A3400343C3489
:100E900000343E340034F801F51F552FF409F509EC
:100EA000F40A0319F50AF801F80AF31F5C2FF20996
:100EB000F309F20A0319F30A730872040319832F62
:100EC000F701F70AF31B6E2F0130F235F30D890B92
:100ED000652F0130F6007608F707622F7308750258
:100EE000031D742F72087402031C7A2F7208F40217
:100EF0007308F53B0130F336F20C890B7B2F013080
:100F0000F702031D6E2F780803198B2FF409F509DA
:100F1000F40A0319F50A7508F301F3077408F201DE
:100F2000F20708002000200884002108850000083E
:100F300000380319080020002008840021088500DB
:100F40000008253A031DC22F0130A0070030A13D43
:100F500020088400210885000008D03EA200220855
:100F6000A300A31BBC2F2308803A783E0318BC2F94
:100F7000F401F40A2308CA2FF401F40A253086315B
:100F800057268731F401F40A200020088400210844
:100F90008500000886315726873101302000A007E0
:100FA0000030A13D922F00308F317827873120000B
:100FB000A2002208A60026087F39A2002208A60067
:100FC0000A30A2002208F2002608A3000430A3364B
:100FD000890BE72F23088E3170262000A4002408F7
:100FE000A50026080F392507A2002208A60026081A
:0E0FF0000800640080010131890BFA2F0034E3
:101C7E00240096161616080024001614161C0800CA
:101C8E00452E24001615161D08004A2E0134013467
:101C9E00013401340F34240096159619542E110870
:101CAE000800FE0012001E00FE0B592E0034F80034
:101CBE007808240091008E31BE26240016080800F4
:101CCE0003308F317827FA007A082000A20022080C
:101CDE000800F500F401751C782E7208F3007308E5
:101CEE00F4070310F20D0310F50CF508031D722E08
:101CFE00740808008E3143268E31D0308E315E2628
:101D0E008E3100308E315E268E3100308E315E2661
:101D1E008E318E314826080021000E148E14273085
:101D2E002400920094171417243095009516150868
:101D3E00F0390838950097159710171091019301F7
:101D4E00080021001908873970389900FC30990570
:101D5E00991795121508F839053895009511230035
:101D6E008C018E0121008E018C160C1608002400A9
:101D7E00160E0139F200160CF300F30C730C013938
:101D8E00F400160C890C0139F500160C0139F60019
:101D9E0016080139F700140C890C01397704760402
:101DAE0075047404720403190800BE2E04308F31BA
:101DBE0078278E312000A2002208FA000F307A0513
:101DCE00A2000A30A3002308F2007A08A40004300F
:101DDE00A436890BEF2E24088E31702620002207A0
:101DEE00A5002508FA007A08080002308F317827FE
:101DFE008E312000A2002208FA000F307A05A200D0
:101E0E000A30A3002308F2007A08A4000430A43696
:101E1E00890B0E2F24088E31702620002207A50074
:101E2E002508FA007A08080001308F3178278F31A3
:101E3E002000A2002208FA000F307A05A2000A3014
:101E4E00A3002308F2007A08A4000430A436890BFC
:101E5E002D2F24088E31702620002207A50025087C
:101E6E00FA007A08080005308F3178278F3120006C
:101E7E00A2002208FA000F307A05A2000A30A30051
:101E8E002308F2007A08A4000430A436890B4C2FE4
:101E9E0024088E31702620002207A5002508FA009E
:101EAE007A08080006308F3178278F312000A20083
:101EBE002208FA000F307A05A2000A30A300230888
:101ECE00F2007A08A4000430A436890B6B2F240884
:101EDE008E31702620002207A5002508FA007A0808
:101EEE0008002000A0008E3143268F31D0308E3175
:101EFE005E268F31200020088E315E268F318E3186
:101F0E0043268F31D1308E315E268F318E3152265F
:101F1E008F31F90079082000A1008E313F268F31D4
:101F2E008E3148262000210808002000A20014301F
:101F3E00220203180800AC2F2217BA2F1430A82F34
:101F4E005430A1002108A207BA2F2008003A031925
:101F5E00BA2F013A0319A32F033A0319A52F013AF9
:101F6E000319A72FBA2FA217F4012208863157267C
:101F7E0008000C34123412340C34003400340034A3
:101F8E000034003404340E341F340E340434003460
:101F9E00003404340434043404341F340E34043452
:101FAE0000340A34153411340A3404340034003445
:101FBE0000340A341F341F340E3404340034003419
:101FCE000034003400340034003400340034003463
:101FDE000034003400340034003400340034003453
:101FEE000034003400340034003400340034003443
:021FFE000034AD
:020000040001F9
:04000E00E4FFFFFF0D
:00000001FF
