:0400000080313628ED
:10000800803120007F08B0008B1A0B1D33280B119C
:100018008B120130C9070030CA3D01304A02F43062
:1000280003194902031C2528A901AA0105308E31AC
:10003800BB2680312000C901CA010130C707003042
:10004800C83D003048023C3003194702031C3228DF
:100058000130AF002F08CB00C701C8018B1630084C
:10006800FF000900803138284230840000308500C4
:100078001B308731FA278031A0308400003085009A
:1000880015308731FA2780318531FE258031DD0032
:10009800163084008D3085002030860001308700BE
:1000A80040308C310624200080315A288531DD25E6
:1000B800803100308731272780312000B30101309B
:1000C8008F310927803124308D31992580312930AD
:1000D8002100C3009630C200A630C100C10B7228AF
:1000E800C20B7228C30B72282000B30101308F3174
:1000F8000927803134308D31992580312000BA01AB
:10010800BA0A00308731D627803103308D319925DE
:1001180080318C313A2480317A302100C300C130DB
:10012800C200F930C100C10B9728C20B9728C30B36
:1001380097289E285930813183218031543083316A
:10014800E82380312000BF01C001C00A0530863194
:10015800682680312000BF01BF0AC0010130833109
:10016800332380318B178B160B1720000C1A0829A4
:100178005B082100C10041082000D200173052025C
:100188000318CD2801302100C10041082000D20702
:10019800CE28D20152082100C100C2014108200026
:1001A800B900210042082000BA0051082100C3000C
:1001B800C40143082000BB00210044082000BC0003
:1001C8000030BD000030BE000230BF000030C0006B
:1001D800823166228031593081318321803120007B
:1001E800BF01C001053086316826803115302100F5
:1001F800C3004B30C200D130C100C10B0129C20B72
:100208000129C30B0129000020008C1A63295A0810
:100218002100C10041082000D1003B3051020318E1
:100228001C2901302100C10041082000D1072929DB
:10023800D101173052020318282901302100C100CA
:1002480041082000D2072929D20152082100C10003
:10025800C20141082000B900210042082000BA006C
:1002680051082100C300C40143082000BB0021003D
:1002780044082000BC000030BD000030BE00023041
:10028800BF000030C0008231662280315930813190
:10029800832180312000BF01C001053086316826E6
:1002A800803115302100C3004B30C200D130C1006D
:1002B800C10B5C29C20B5C29C30B5C290000200020
:1002C8004B08013A031DB928593081318321803107
:1002D80054308331E82380312000BF01C001C00AB7
:1002E80005308631682680312000BF01BF0AC00171
:1002F80002308331332380312000CB01B92821001B
:10030800BA00B5012C08B9002B08B8002A08B700B4
:100318002908B6002000B101D0308C31D9248131B0
:100328000038031D9B2914308C3116248131B630D6
:100338002000BE003E08B1000330BF003F08B200F5
:10034800D0308631C92681312000C0004008210004
:10035800B500BB0136082000BE003E082100BB00E6
:100368000F303B052000BE000A30BF003F08B10037
:1003780021003B082000C0000430C036890BC12989
:10038800400807398C312824813120003E07C100FC
:1003980021003A08860087012000410881002100D9
:1003A80037082000BE003E082100BB000F303B0587
:1003B8002000BE000A30BF003F08B10021003B0802
:1003C8002000C0000430C036890BE72940088C3172
:1003D8002824813120003E07C10021003A0A860006
:1003E80087012000410881002100381F362AB81EE5
:1003F800092A01302000BE0021003A08033E860089
:10040800870120003E0881000F2A21003A08033E98
:10041800860087018101210038082000BE003E08BF
:100428002100BB000F303B052000BE000A30BF0092
:100438003F08B10021003B082000C0000430C0364E
:10044800890B232A400801398C31282420003E07D3
:10045800C10021003A08023E8600870120004108B9
:1004680081000800210038082000BE003E08210055
:10047800BB000F303B052000BE000A30BF003F081C
:10048800B10021003B082000C0000430C036890BB1
:100498004A2A40088C31282420003E07C100210048
:1004A8003A08023E86008701200041088100023098
:1004B800BE0021003A08033E8600870120003E085E
:1004C8008100080021003008BD002F08BC002E085C
:1004D800BB002D08BA00B901BA010A302000B100EA
:1004E8000030B2003E08B401B4073D08B301B307B9
:1004F8008C3173248231200031082100B50020009E
:1005080032082100B6000A302000B1000030B200E5
:100518003E08B401B4073D08B301B3078C31A224E7
:100528008231200031082100B7000330B735FF3E83
:10053800031D9A2A37353504B8003808BB000A303D
:100548002000B1000030B2003C08B401B4073B08F9
:10055800B301B3078C3173248231200031082100A4
:10056800B500200032082100B6000A302000B10092
:100578000030B2003C08B401B4073B08B301B3072C
:100588008C31A2248231200031082100B7000330C9
:10059800B735FF3E031DCC2A37353504B800380877
:1005A800BC000A302000B1000030B2003A08B401A3
:1005B800B4073908B301B3078C31732482312000A2
:1005C80031082100B500200032082100B6000A30A9
:1005D8002000B1000030B2003A08B401B40739086D
:1005E800B301B3078C31A2248231200031082100E5
:1005F800B7000330B735FF3E031DFE2A37353504F3
:10060800B8003808BD00112B21003C171F2B6030A3
:100618002100B5003508BC041F2B20004008003A13
:100628000319172B1F2B3F08003A0319082B013A0F
:1006380003190B2B1F2BBA302100B50035082000F9
:10064800B10004302100B60036082000B200D030D6
:100658008E316F262100B7003708B9000800200046
:10066800C10054082100BE003E082000CE005508F5
:100678002100BE003E082000CD0056082100BE0023
:100688003E082000D00057082100BE003E08200088
:10069800CF0040080319562BB30101308F310927C9
:1006A8008331200020003F082100BE003E082000C2
:1006B800BA0041088731D6278331852B52308D31D6
:1006C800992583319D2B57308D31992583319D2B69
:1006D8004D308D31992583319D2B5C308D31992595
:1006E80083319D2B61308D31992583319D2B43308A
:1006F8008D31992583319D2B48308D319925833152
:100708009D2B20004E08013A0319622B033A031966
:10071800672B013A03196C2B073A0319712B013A1D
:100728000319762B033A03197B2B013A0319802B03
:100738009D2B20004D082100BE00BF013E0820006F
:10074800BA0021003F082000BB0002302100C00091
:1007580040082000BC0084319824833132308D3128
:1007680099258331200050082100BE00BF013E08B2
:100778002000BA0021003F082000BB000230210001
:10078800C00040082000BC008431982483313230F6
:100798008D319925833120004F082100BE00BF010B
:1007A8003E082000BA0021003F082000BB000230AC
:1007B8002100C00040082000BC0084319824833107
:1007C80032308D31992508002100BA00B50128087A
:1007D800B9002708B8002608B7002508B600033076
:1007E8002000BE003E08B100D0308C31D9248331BE
:1007F8000038031D032C14308C3116248331B63095
:100808002000BE003E08B1000430BF003F08B2001F
:10081800D0308631C92683312000C000400821002D
:10082800B500BB0136082000BE003E082100BB0011
:100838003B0807392000BE0021003A0886008701DE
:1008480020003E088100210037082000BE003E0835
:100858002100BB000F303B052000BE000A30BF005E
:100868003F08B10021003B082000C0000430C0361A
:10087800890B3B2C40088C312824833120003E070B
:10088800C10021003A0A8600870120004108810042
:10089800210038082000BE003E082100BB000F30B0
:1008A8003B052000BE000A30BF003F08B100210010
:1008B8003B082000C0000430C036890B602C40087B
:1008C8008C312824833120003E07C10021003A08DA
:1008D800023E860087012000410881002100390876
:1008E8002000BE003E082100BB000F303B05200061
:1008F800BE000A30BF003F08B10021003B082000BD
:10090800C0000430C036890B862C40088C3128245E
:1009180020003E07C10021003A08033E86008701F7
:10092800200041088100080042308600003087001E
:10093800B5308400003085000530FF0016001A002D
:10094800FF0BA22C04302100BC000030BD00BA010E
:10095800BB012000BB1FBC2CB301B30A2D308F3163
:10096800092784312000BA09BB09BA0A0319BB0A4E
:1009780020003B083A040319F32C0A30B100003078
:10098800B2003B08B401B4073A08B301B3078E318B
:100998002726843120003108BD0021003C08B53EDF
:1009A8008600870120003D0881000A30B100003030
:1009B800B2003B08B401B4073A08B301B307873162
:1009C8008227843120003208BB01BB073108BA01F5
:1009D800BA07FF302100BC07FF30BD3DBC2C3C08E6
:1009E800FF3A0319FD2C072D01302100BA0700300A
:1009F800BB3D21003A08B53E860087010108003A50
:100A0800031D1B2DF82C20003C08BD00BE01BD1B9A
:100A1800BE03BD09BE09BD0A0319BE0A3D08053E4D
:100A28002100BA00003020003E3D2100BB003B08F9
:100A3800BD01BD073A08BC01BC073D08803AFF006C
:100A480080307F02031D2A2D05303C020318080060
:100A58002000B301B30A21003C08B53E8600870197
:100A68000108303E8F310927843101302100BC074D
:100A78000030BD3D212D42308600003087002030F7
:100A88008400003085000530FF0016001A00FF0BB7
:100A9800492D04302000A7000030A800A501A601B8
:100AA800FA1F612DF201F20A2D308F315927853155
:100AB800F909FA09F90A0319FA0A7A0879040319EB
:100AC800942D0A30F0000030F1007A08F301F307A2
:100AD8007908F201F2078D31DF2585317008FC00B5
:100AE80020002708203E860087017C0881000A3004
:100AF800F0000030F1007A08F301F3077908F201F9
:100B0800F2078F31AC2785317108FA01FA077008AE
:100B1800F901F907FF302000A707FF30A83D612D34
:100B28007B08FF3A03199E2DA92D01302000A50747
:100B38000030A63D20002508203E860087010108D8
:100B4800003A0319992D2100BA2D7B08FC00FD01FC
:100B5800FC1BFD03FC09FD09FC0A0319FD0A7C08BE
:100B6800053E2000A50000307D3DA6002608A8010E
:100B7800A8072508A701A7072808803AFF008030A2
:100B88007F02031DC92D0530270203180800F20152
:100B9800F20A20002708203E860087010108303E1F
:100BA8008F315927853101302000A7070030A83D33
:100BB800C02D21001908873970389900FC30990533
:100BC800991795121508F8390538950095112300DD
:100BD8008C018E0121008E018C160C160800343011
:100BE8002000B200F130B100B10BF82DB20BF82D96
:060BF800FD2D0800013490
:100C0000003400340034693420346D3461346C3481
:100C10007534203462346534623469346334753435
:100C200020343A3429340034523465347334653412
:100C300074342034323420346634613469346C3492
:100C4000653464342134003449346E346934743486
:100C5000693461346C3469347A3469346E3467349D
:100C60002E342E342E340034533461346C346534D5
:100C7000203476346F346C34693420345A3461341F
:100C80006E34753400345334753462342034003497
:100C90004E34653464342034003453347234653453
:100CA0002034003450346F346E34203400345534E2
:100CB00074346F3420340034433465347434203455
:100CC0000034503465347434203400343A34003401
:100CD0002000C1005B082100BE003E082000D200B9
:100CE0005A082100BE003E082000D1004008031928
:100CF0007F2EB30101308F3109278631200020007B
:100D00003F082100BE003E082000BA00410887319C
:100D1000D6278631200052082100BE00BF013E08C0
:100D20002000BA0021003F082000BB000230210053
:100D3000C00040082000BC00843198248631200087
:100D40005D08013A031DAB2E66308D319925863141
:100D50002000DD01B52E46308D31992586310130D8
:100D60002100BE003E082000DD0051082100BE0029
:100D7000BF013E082000BA0021003F082000BB0050
:100D800002302100C00040082000BC0084319824BB
:100D900008002000B4002400941DD02E0330080069
:100DA00016141618D12E2000921DD92E9211023041
:100DB0000800340801382400910024001418E22EA1
:100DC000141DE52E2000921DDD2E2000921DEB2E1D
:100DD0009211023008002400161F172F161516193D
:100DE000EF2E00300800240096159619F52E1108F4
:100DF0002000B300310886008701330881000130EC
:100E0000B3003308B1073208013A031D0A2F24004A
:100E100096160C2F240096121616161A0D2F013056
:100E20002000B202921D172F9211023008002000FC
:100E3000B208031DF32E2400161516191D2F2000CD
:100E4000921D252F92110230080001300800200069
:100E5000BD000230BC003830BB00AD30BA00BA0B68
:100E60002F2FBB0B2F2FBC0B2F2FC3302000BA000E
:100E70003A0821008E050C110C108C10C330200094
:100E8000BA003A088E050C118C100C10472F482F11
:100E900020000C158E154C2F4D2F4E2F4F2F20005C
:100EA0000C11522F532F542F552F8531F325873195
:100EB0002000B30128308F31092787312000B3018A
:100EC0003D080C388F31092787312000B3014030AD
:100ED0008F31092787312000BE0140303E020318C0
:100EE0000800B301B30A3E08203E860001308700A7
:100EF00001088F310927873101302000BA003A08F4
:100F0000BE076D2F2000B701B21F8D2FB109B209A6
:100F1000B10A0319B20AB701B70AB41F982FB3096F
:100F2000B409B30A0319B40A0130B5003508B7068D
:100F3000B801B901320831040319C72FB601B60A46
:100F4000B21BAC2F0130B135B20D890BA32F01308C
:100F5000B5003508B607A02F0130B835B90D890B9B
:100F6000AD2F32083402031DB72F31083302031CA2
:100F7000BE2F3108B3023208B43B38140130B23608
:100F8000B10C890BBF2F0130B602031DAC2F3708FF
:100F90000319CF2FB809B909B80A0319B90A3908D2
:100FA000B201B2073808B101B10708002000BC0047
:100FB00014303C0203180800E62F3C17F42F1430BD
:100FC000E22F5430BB003B08BC07F42F3A08003A2C
:100FD0000319F42F013A0319DD2F033A0319DF2F08
:100FE000013A0319E12FF42FBC17B3013C088F31EC
:100FF00009270800640080010131890BFB2F0034B0
:10180C00FE0012001E00FE0B072C00343430F100D9
:10181C00F130F000F00B102CF10B102C152C0800F3
:10182C002000BD00B30101308F3109278C3120001D
:10183C00BA0100308731D6278C3120003D088D311C
:10184C00992508002000B400B301341C312C310858
:10185C00B2003208B3070310B10D0310B40CB40876
:10186C00031D2B2C3308080021000E148E14273076
:10187C00240092009417141724309500951615081F
:10188C00F0390838950097159710171091019301AE
:10189C000800FB0014307B02031808005F2C7B1738
:1018AC005D2C14305A2C5430FA007A08FB072000B7
:1018BC006D2C7908003A03196D2C013A0319552C3B
:1018CC00033A0319572C013A0319592C6D2CFB17A9
:1018DC00F2017B088F3159270800200032083104AF
:1018EC0003199B2CB601B60AB21B862C0130B135FC
:1018FC00B20D890B7D2C0130B5003508B6077A2C5A
:10190C0032083402031D8C2C31083302031C922C38
:10191C003108B3023208B43B0130B236B10C890B3A
:10192C00932C0130B602031D862C3408B201B20789
:10193C003308B101B10708002000B701B801320823
:10194C0031040319D22CB601B60AB21BB72C0130E4
:10195C00B135B20D890BAE2C0130B5003508B60788
:10196C00AB2C0130B735B80D890BB82C32083402CA
:10197C00031DC22C31083302031CC92C3108B302DD
:10198C003208B43B37140130B236B10C890BCA2C77
:10199C000130B602031DB72C3808B201B207370864
:1019AC00B101B10708002000B2002400941DE02C06
:1019BC000330080016141618E12C2000921DE92C97
:1019CC00921102300800320824009100141C1419E2
:1019DC00EC2C161FF62C16151619F22C00300800DC
:1019EC002000310824009100141C1419FA2C161F25
:1019FC00042D16151619002D003008002000921D1C
:101A0C000A2D9211023008002400161516190C2DFF
:101A1C002000921D142D9211023008000130080094
:101A2C000C34123412340C340034003400340034CE
:101A3C00003404340E341F340E34043400340034B7
:101A4C0004340434043404341F340E3404340034A9
:101A5C000A34153411340A3404340034003400349C
:101A6C000A341F341F340E34043400340034003470
:101A7C0000340034003400340034003400340034BA
:101A8C0000340034003400340034003400340034AA
:101A9C00003400340034003400340034003400349A
:101AAC00FB007B0886310A008D3100380319972D15
:101ABC007B0886310A008D31253A031D892D0130B2
:101ACC00F9007908FB077B0886310A008D31D03E7E
:101ADC00F9007908FA00FA1B7C2D7A08803A783ED6
:101AEC0003187C2DF201F20A7A088F2DF201F20A0A
:101AFC0025308F3159278D31F201F20A7B0886315E
:101B0C000A008D318F2DF201F20A7B0886310A0012
:101B1C008D318F3159278D310130F9007908FB0750
:101B2C00572D200008002000BC003C0886310A001C
:101B3C008D310038031908003C0886310A008D31BC
:101B4C00253A031DCF2D0130BA003A08BC073C08DA
:101B5C0086310A008D31D03EBA003A08BB00BB1B5F
:101B6C00C02D3B08803A783E0318C02DB301B30A50
:101B7C003B08D62D2000B301B30A25308F3109273D
:101B8C008D312000B301B30A3C0886310A008D3137
:101B9C00D62D2000B301B30A3C0886310A008D31E2
:101BAC008F3109278D3101302000BA003A08BC076B
:101BBC009B2DF601F31FE92DF209F309F20A031923
:101BCC00F30AF601F60AF11FF02DF009F109F00AFB
:101BDC000319F10A710870040319172EF501F50A9F
:101BEC00F11B022E0130F035F10D890BF92D01306E
:101BFC00F4007408F507F62D71087302031D082E06
:101C0C0070087202031C0E2E7008F2027108F33B6E
:101C1C000130F136F00C890B0F2E0130F502031D4B
:101C2C00022E760803191F2EF209F309F20A031982
:101C3C00F30A7308F101F1077208F001F0072000B4
:101C4C0008002000B701B41F322EB309B409B30A3F
:101C5C000319B40AB701B70AB21F392EB109B20978
:101C6C00B10A0319B20A320831040319602EB60105
:101C7C00B60AB21B4B2E0130B135B20D890B422E78
:101C8C000130B5003508B6073F2E32083402031D6B
:101C9C00512E31083302031C572E3108B30232087F
:101CAC00B43B0130B236B10C890B582E0130B60260
:101CBC00031D4B2E37080319682EB309B409B30A58
:101CCC000319B40A3408B201B2073308B101B107E1
:101CDC0008002000B4002400941D762E0330080068
:101CEC0016141618772E2000921D7F2E921102309A
:101CFC000800340824009100141C1419822E161F9D
:101D0C00AB2E16151619882E00300800200031084D
:101D1C008600870101082400910001302000B300E7
:101D2C003308B1072400141C1419982E161FA32E67
:101D3C00161516199F2E003008002000921DA92E92
:101D4C009211023008000130B2022000B208031DCB
:101D5C008C2E240016151619B12E2000921DB92EAA
:101D6C00921102300800013008002000AE005B0820
:101D7C00AB002B08D2005A08AB002B08D1002A0864
:101D8C000319CE2EF20101308F3159278E312000EC
:101D9C0020002908AB002B08F9002E088C314F24A9
:101DAC008E3120005208AB00AC012B08F9002C0836
:101DBC00FA000230AD002D08FB0085313F258E3135
:101DCC0020005D08013A031DF22E66308D31562538
:101DDC008E312000DD01FB2E46308D3156258E31A3
:101DEC0001302000AB002B08DD005108AB00AC012A
:101DFC002B08F9002C08FA000230AD002D08FB006E
:101E0C0085313F2508002000B8003808B4000430A4
:101E1C00B436890B0E2F3408B5003508B6003808D7
:101E2C000F39B4003408B700B308031D1F2F0C1072
:101E3C00202F0C14212F222F20000C153608B40053
:101E4C000230B435890B272F0E08C3393404B50082
:101E5C003508B90039088E00332F342F352F362F23
:101E6C0020000C11392F3A2F3B2F3C2F20000C1542
:101E7C003708B4000230B435890B412F0E08C33932
:101E8C003404B5003508B90039088E004D2F4E2F9B
:101E9C004F2F502F20000C11532F542F552F562FEE
:101EAC008531F3250800F7007708F3000430F3368A
:101EBC00890B5D2F7308F4007408F50077080F394F
:101ECC00F3007308F600F20803196E2F2000712F2F
:101EDC0020000C10732F20000C14742F752F200071
:101EEC000C157508F3000230F335890B7A2F0E08A8
:101EFC00C3397304F4007408F80078088E00862F38
:101F0C00872F882F892F20000C118C2F8D2F8E2F2F
:101F1C008F2F20000C157608F3000230F335890B57
:101F2C00942F0E08C3397304F4007408F800780871
:101F3C008E00A02FA12FA22FA32F20000C11A62FB3
:101F4C00A72FA82FA92F8C310C240800F601F11F04
:101F5C00B62FF009F109F00A0319F10AF601F60A95
:101F6C00F31FC12FF209F309F20A0319F30A013026
:101F7C00F4007408F606F701F801710870040319EF
:101F8C00F02FF501F50AF11BD52F0130F035F10DCD
:101F9C00890BCC2F0130F4007408F507C92F0130E0
:101FAC00F735F80D890BD62F71087302031DE02F3E
:101FBC0070087202031CE72F7008F2027108F33BE1
:101FCC0077140130F136F00C890BE82F0130F50253
:101FDC00031DD52F76080319F82FF709F809F70A0E
:101FEC000319F80A7808F101F1077708F001F007F6
:041FFC0020000800B9
:020000040001F9
:04000E00E4FFFFFF0D
:00000001FF
